{
  "contractName": "ItemManager",
  "abi": [
    {
      "anonymous": false,
      "inputs": [
        {
          "indexed": false,
          "internalType": "uint256",
          "name": "index",
          "type": "uint256"
        },
        {
          "indexed": false,
          "internalType": "string",
          "name": "id",
          "type": "string"
        },
        {
          "indexed": false,
          "internalType": "uint256",
          "name": "state",
          "type": "uint256"
        },
        {
          "indexed": false,
          "internalType": "address",
          "name": "item",
          "type": "address"
        }
      ],
      "name": "SupplyChainStep",
      "type": "event"
    },
    {
      "inputs": [],
      "name": "isOwner",
      "outputs": [
        {
          "internalType": "bool",
          "name": "",
          "type": "bool"
        }
      ],
      "stateMutability": "view",
      "type": "function",
      "constant": true
    },
    {
      "inputs": [
        {
          "internalType": "uint256",
          "name": "",
          "type": "uint256"
        }
      ],
      "name": "items",
      "outputs": [
        {
          "internalType": "contract ItemContract",
          "name": "item",
          "type": "address"
        },
        {
          "internalType": "string",
          "name": "id",
          "type": "string"
        },
        {
          "internalType": "uint256",
          "name": "price",
          "type": "uint256"
        },
        {
          "internalType": "enum ItemManager.SupplyChainState",
          "name": "state",
          "type": "uint8"
        }
      ],
      "stateMutability": "view",
      "type": "function",
      "constant": true
    },
    {
      "inputs": [
        {
          "internalType": "string",
          "name": "_id",
          "type": "string"
        },
        {
          "internalType": "uint256",
          "name": "_price",
          "type": "uint256"
        }
      ],
      "name": "createItem",
      "outputs": [],
      "stateMutability": "nonpayable",
      "type": "function"
    },
    {
      "inputs": [
        {
          "internalType": "uint256",
          "name": "_itemIndex",
          "type": "uint256"
        }
      ],
      "name": "triggerPayment",
      "outputs": [],
      "stateMutability": "payable",
      "type": "function",
      "payable": true
    },
    {
      "inputs": [
        {
          "internalType": "uint256",
          "name": "_itemIndex",
          "type": "uint256"
        }
      ],
      "name": "triggerDelivery",
      "outputs": [],
      "stateMutability": "payable",
      "type": "function",
      "payable": true
    }
  ],
  "bytecode": "0x608060405234801561001057600080fd5b50336000806101000a81548173ffffffffffffffffffffffffffffffffffffffff021916908373ffffffffffffffffffffffffffffffffffffffff160217905550611aeb806100606000396000f3fe608060405260043610620000505760003560e01c8063800fb83f14620000555780638c55174214620000755780638f32d59b14620000a3578063bfb231d214620000d3578063cd31831e146200011a575b600080fd5b6200007360048036038101906200006d919062000ba4565b6200013a565b005b3480156200008257600080fd5b50620000a160048036038101906200009b919062000b3e565b62000387565b005b348015620000b057600080fd5b50620000bb62000625565b604051620000ca919062000da5565b60405180910390f35b348015620000e057600080fd5b50620000ff6004803603810190620000f9919062000ba4565b6200067c565b60405162000111949392919062000dc2565b60405180910390f35b62000138600480360381019062000132919062000ba4565b62000769565b005b60025481111562000182576040517f08c379a0000000000000000000000000000000000000000000000000000000008152600401620001799062000eb9565b60405180910390fd5b34600160008381526020019081526020016000206002015414620001dd576040517f08c379a0000000000000000000000000000000000000000000000000000000008152600401620001d49062000e75565b60405180910390fd5b60006002811115620001f457620001f3620011c4565b5b6001600083815260200190815260200160002060030160009054906101000a900460ff1660028111156200022d576200022c620011c4565b5b1462000270576040517f08c379a0000000000000000000000000000000000000000000000000000000008152600401620002679062000e53565b60405180910390fd5b60016002811115620002875762000286620011c4565b5b6001600083815260200190815260200160002060030160009054906101000a900460ff166002811115620002c057620002bf620011c4565b5b50507f9edad0f462fd8f168e8f1b96ad8326447fd29e5ed3e02f16a6350f65513db0ed81600160008481526020019081526020016000206001016001600085815260200190815260200160002060030160009054906101000a900460ff166002811115620003335762000332620011c4565b5b6001600086815260200190815260200160002060000160009054906101000a900473ffffffffffffffffffffffffffffffffffffffff166040516200037c949392919062000edb565b60405180910390a150565b60008054906101000a900473ffffffffffffffffffffffffffffffffffffffff1673ffffffffffffffffffffffffffffffffffffffff163373ffffffffffffffffffffffffffffffffffffffff161462000418576040517f08c379a00000000000000000000000000000000000000000000000000000000081526004016200040f9062000e97565b60405180910390fd5b30816002546040516200042b90620009eb565b620004399392919062000e16565b604051809103906000f08015801562000456573d6000803e3d6000fd5b5060016000600254815260200190815260200160002060000160006101000a81548173ffffffffffffffffffffffffffffffffffffffff021916908373ffffffffffffffffffffffffffffffffffffffff160217905550816001600060025481526020019081526020016000206001019080519060200190620004db929190620009f9565b508060016000600254815260200190815260200160002060020181905550600060016000600254815260200190815260200160002060030160006101000a81548160ff02191690836002811115620005385762000537620011c4565b5b02179055507f9edad0f462fd8f168e8f1b96ad8326447fd29e5ed3e02f16a6350f65513db0ed60025460016000600254815260200190815260200160002060010160016000600254815260200190815260200160002060030160009054906101000a900460ff166002811115620005b457620005b3620011c4565b5b60016000600254815260200190815260200160002060000160009054906101000a900473ffffffffffffffffffffffffffffffffffffffff16604051620005ff949392919062000edb565b60405180910390a1600260008154809291906200061c9062001147565b91905055505050565b60008060009054906101000a900473ffffffffffffffffffffffffffffffffffffffff1673ffffffffffffffffffffffffffffffffffffffff163373ffffffffffffffffffffffffffffffffffffffff1614905090565b60016020528060005260406000206000915090508060000160009054906101000a900473ffffffffffffffffffffffffffffffffffffffff1690806001018054620006c790620010db565b80601f0160208091040260200160405190810160405280929190818152602001828054620006f590620010db565b8015620007465780601f106200071a5761010080835404028352916020019162000746565b820191906000526020600020905b8154815290600101906020018083116200072857829003601f168201915b5050505050908060020154908060030160009054906101000a900460ff16905084565b60008054906101000a900473ffffffffffffffffffffffffffffffffffffffff1673ffffffffffffffffffffffffffffffffffffffff163373ffffffffffffffffffffffffffffffffffffffff1614620007fa576040517f08c379a0000000000000000000000000000000000000000000000000000000008152600401620007f19062000e97565b60405180910390fd5b60025481111562000842576040517f08c379a0000000000000000000000000000000000000000000000000000000008152600401620008399062000eb9565b60405180910390fd5b60016002811115620008595762000858620011c4565b5b6001600083815260200190815260200160002060030160009054906101000a900460ff166002811115620008925762000891620011c4565b5b14620008d5576040517f08c379a0000000000000000000000000000000000000000000000000000000008152600401620008cc9062000e53565b60405180910390fd5b600280811115620008eb57620008ea620011c4565b5b6001600083815260200190815260200160002060030160009054906101000a900460ff166002811115620009245762000923620011c4565b5b50507f9edad0f462fd8f168e8f1b96ad8326447fd29e5ed3e02f16a6350f65513db0ed81600160008481526020019081526020016000206001016001600085815260200190815260200160002060030160009054906101000a900460ff166002811115620009975762000996620011c4565b5b6001600086815260200190815260200160002060000160009054906101000a900473ffffffffffffffffffffffffffffffffffffffff16604051620009e0949392919062000edb565b60405180910390a150565b61076a806200134c83390190565b82805462000a0790620010db565b90600052602060002090601f01602090048101928262000a2b576000855562000a77565b82601f1062000a4657805160ff191683800117855562000a77565b8280016001018555821562000a77579182015b8281111562000a7657825182559160200191906001019062000a59565b5b50905062000a86919062000a8a565b5090565b5b8082111562000aa557600081600090555060010162000a8b565b5090565b600062000ac062000aba8462000f58565b62000f2f565b90508281526020810184848401111562000adf5762000ade62001256565b5b62000aec84828562001096565b509392505050565b600082601f83011262000b0c5762000b0b62001251565b5b813562000b1e84826020860162000aa9565b91505092915050565b60008135905062000b388162001331565b92915050565b6000806040838503121562000b585762000b5762001260565b5b600083013567ffffffffffffffff81111562000b795762000b786200125b565b5b62000b878582860162000af4565b925050602062000b9a8582860162000b27565b9150509250929050565b60006020828403121562000bbd5762000bbc62001260565b5b600062000bcd8482850162000b27565b91505092915050565b62000be18162000fbf565b82525050565b62000bf28162000fd3565b82525050565b62000c03816200101e565b82525050565b62000c148162001032565b82525050565b62000c258162001046565b82525050565b600062000c388262000fa3565b62000c44818562000fae565b935062000c56818560208601620010a5565b62000c618162001265565b840191505092915050565b6000815462000c7b81620010db565b62000c87818662000fae565b9450600182166000811462000ca5576001811462000cb85762000cef565b60ff198316865260208601935062000cef565b62000cc38562000f8e565b60005b8381101562000ce75781548189015260018201915060208101905062000cc6565b808801955050505b50505092915050565b600062000d07601c8362000fae565b915062000d148262001276565b602082019050919050565b600062000d2e60148362000fae565b915062000d3b826200129f565b602082019050919050565b600062000d5560158362000fae565b915062000d6282620012c8565b602082019050919050565b600062000d7c60128362000fae565b915062000d8982620012f1565b602082019050919050565b62000d9f8162001014565b82525050565b600060208201905062000dbc600083018462000be7565b92915050565b600060808201905062000dd9600083018762000bf8565b818103602083015262000ded818662000c2b565b905062000dfe604083018562000d94565b62000e0d606083018462000c1a565b95945050505050565b600060608201905062000e2d600083018662000c09565b62000e3c602083018562000d94565b62000e4b604083018462000d94565b949350505050565b6000602082019050818103600083015262000e6e8162000cf8565b9050919050565b6000602082019050818103600083015262000e908162000d1f565b9050919050565b6000602082019050818103600083015262000eb28162000d46565b9050919050565b6000602082019050818103600083015262000ed48162000d6d565b9050919050565b600060808201905062000ef2600083018762000d94565b818103602083015262000f06818662000c6c565b905062000f17604083018562000d94565b62000f26606083018462000bd6565b95945050505050565b600062000f3b62000f4e565b905062000f49828262001111565b919050565b6000604051905090565b600067ffffffffffffffff82111562000f765762000f7562001222565b5b62000f818262001265565b9050602081019050919050565b60008190508160005260206000209050919050565b600081519050919050565b600082825260208201905092915050565b600062000fcc8262000ff4565b9050919050565b60008115159050919050565b600081905062000fef826200131a565b919050565b600073ffffffffffffffffffffffffffffffffffffffff82169050919050565b6000819050919050565b60006200102b826200106e565b9050919050565b60006200103f826200105a565b9050919050565b6000620010538262000fdf565b9050919050565b6000620010678262001082565b9050919050565b60006200107b8262001082565b9050919050565b60006200108f8262000ff4565b9050919050565b82818337600083830152505050565b60005b83811015620010c5578082015181840152602081019050620010a8565b83811115620010d5576000848401525b50505050565b60006002820490506001821680620010f457607f821691505b602082108114156200110b576200110a620011f3565b5b50919050565b6200111c8262001265565b810181811067ffffffffffffffff821117156200113e576200113d62001222565b5b80604052505050565b6000620011548262001014565b91507fffffffffffffffffffffffffffffffffffffffffffffffffffffffffffffffff8214156200118a576200118962001195565b5b600182019050919050565b7f4e487b7100000000000000000000000000000000000000000000000000000000600052601160045260246000fd5b7f4e487b7100000000000000000000000000000000000000000000000000000000600052602160045260246000fd5b7f4e487b7100000000000000000000000000000000000000000000000000000000600052602260045260246000fd5b7f4e487b7100000000000000000000000000000000000000000000000000000000600052604160045260246000fd5b600080fd5b600080fd5b600080fd5b600080fd5b6000601f19601f8301169050919050565b7f4974656d206973206675727468657220696e2074686520636861696e00000000600082015250565b7f5061796d656e7420697320646966666572656e74000000000000000000000000600082015250565b7f596f7520617265206e6f7420746865206f776e65720000000000000000000000600082015250565b7f496e646578206f7574206f662072616e67650000000000000000000000000000600082015250565b600381106200132e576200132d620011c4565b5b50565b6200133c8162001014565b81146200134857600080fd5b5056fe608060405234801561001057600080fd5b5060405161076a38038061076a833981810160405281019061003291906100b3565b816000819055508060028190555082600360006101000a81548173ffffffffffffffffffffffffffffffffffffffff021916908373ffffffffffffffffffffffffffffffffffffffff160217905550505050610187565b60008151905061009881610159565b92915050565b6000815190506100ad81610170565b92915050565b6000806000606084860312156100cc576100cb610154565b5b60006100da86828701610089565b93505060206100eb8682870161009e565b92505060406100fc8682870161009e565b9150509250925092565b60006101118261012a565b9050919050565b600061012382610106565b9050919050565b600073ffffffffffffffffffffffffffffffffffffffff82169050919050565b6000819050919050565b600080fd5b61016281610118565b811461016d57600080fd5b50565b6101798161014a565b811461018457600080fd5b50565b6105d4806101966000396000f3fe6080604052600436106100385760003560e01c80632986c0e51461024657806389794d0014610271578063a035b1fe1461029c57610241565b3661024157600060015414610082576040517f08c379a000000000000000000000000000000000000000000000000000000000815260040161007990610399565b60405180910390fd5b34600054146100c6576040517f08c379a00000000000000000000000000000000000000000000000000000000081526004016100bd906103d9565b60405180910390fd5b34600160008282546100d8919061043b565b925050819055506000600360009054906101000a900473ffffffffffffffffffffffffffffffffffffffff1673ffffffffffffffffffffffffffffffffffffffff163460025460405160240161012e91906103f9565b6040516020818303038152906040527f800fb83f000000000000000000000000000000000000000000000000000000007bffffffffffffffffffffffffffffffffffffffffffffffffffffffff19166020820180517bffffffffffffffffffffffffffffffffffffffffffffffffffffffff83818316178352505050506040516101b89190610382565b60006040518083038185875af1925050503d80600081146101f5576040519150601f19603f3d011682016040523d82523d6000602084013e6101fa565b606091505b505090508061023e576040517f08c379a0000000000000000000000000000000000000000000000000000000008152600401610235906103b9565b60405180910390fd5b50005b600080fd5b34801561025257600080fd5b5061025b6102c7565b60405161026891906103f9565b60405180910390f35b34801561027d57600080fd5b506102866102cd565b60405161029391906103f9565b60405180910390f35b3480156102a857600080fd5b506102b16102d3565b6040516102be91906103f9565b60405180910390f35b60025481565b60015481565b60005481565b60006102e482610414565b6102ee818561041f565b93506102fe81856020860161049b565b80840191505092915050565b600061031760118361042a565b9150610322826104fd565b602082019050919050565b600061033a60298361042a565b915061034582610526565b604082019050919050565b600061035d601a8361042a565b915061036882610575565b602082019050919050565b61037c81610491565b82525050565b600061038e82846102d9565b915081905092915050565b600060208201905081810360008301526103b28161030a565b9050919050565b600060208201905081810360008301526103d28161032d565b9050919050565b600060208201905081810360008301526103f281610350565b9050919050565b600060208201905061040e6000830184610373565b92915050565b600081519050919050565b600081905092915050565b600082825260208201905092915050565b600061044682610491565b915061045183610491565b9250827fffffffffffffffffffffffffffffffffffffffffffffffffffffffffffffffff03821115610486576104856104ce565b5b828201905092915050565b6000819050919050565b60005b838110156104b957808201518184015260208101905061049e565b838111156104c8576000848401525b50505050565b7f4e487b7100000000000000000000000000000000000000000000000000000000600052601160045260246000fd5b7f4974656d20616c72656164792070616964000000000000000000000000000000600082015250565b7f5472616e73636174696f6e207761736e2774207375636365737366756c2c206360008201527f616e63656c696e67200000000000000000000000000000000000000000000000602082015250565b7f4f6e6c792066756c6c207061796d656e747320616c6c6f77656400000000000060008201525056fea26469706673582212200c328523cbcd1d36bc47d5258b9ccfed2216d5336e566990e50313a5ed13725d64736f6c63430008070033a26469706673582212201e472501e3b29ab68d0b17afe293e0e5a1b8280188d2fc75b80139541b8ca6fc64736f6c63430008070033",
  "immutableReferences": {},
  "source": "pragma solidity ^0.8.7;\n\nimport \"./Ownable.sol\";\nimport \"./ItemContract.sol\";\n\ncontract ItemManager is Ownable {\n\n    enum SupplyChainState{Created, Paid, Delivered}\n\n    struct Item {\n        ItemContract item;\n        string id;\n        uint price;\n        SupplyChainState state;\n    }\n\n    mapping(uint => Item) public items;\n    uint itemIndex;\n\n    event SupplyChainStep(uint index, string id, uint state, address item);\n\n    function createItem(string memory _id, uint _price) public onlyOwner {\n        items[itemIndex].item = new ItemContract(this, _price, itemIndex);\n        items[itemIndex].id = _id;\n        items[itemIndex].price = _price;\n        items[itemIndex].state = SupplyChainState.Created;\n        emit SupplyChainStep(itemIndex, items[itemIndex].id, uint(items[itemIndex].state), address(items[itemIndex].item));\n        itemIndex++;\n    }\n\n    function triggerPayment(uint _itemIndex) public payable {\n        require(_itemIndex <= itemIndex, \"Index out of range\");\n        require(items[_itemIndex].price == msg.value, \"Payment is different\");\n        require(items[_itemIndex].state == SupplyChainState.Created, \"Item is further in the chain\");\n\n        items[_itemIndex].state == SupplyChainState.Paid;\n        emit SupplyChainStep(_itemIndex, items[_itemIndex].id, uint(items[_itemIndex].state), address(items[_itemIndex].item));\n    }\n\n    function triggerDelivery(uint _itemIndex) public payable onlyOwner {\n        require(_itemIndex <= itemIndex, \"Index out of range\");\n        require(items[_itemIndex].state == SupplyChainState.Paid, \"Item is further in the chain\");\n\n        items[_itemIndex].state == SupplyChainState.Delivered;\n        emit SupplyChainStep(_itemIndex, items[_itemIndex].id, uint(items[_itemIndex].state), address(items[_itemIndex].item));\n    }\n}\n",
  "sourcePath": "/home/natan/Documents/Natan/solidity/classes/second-project/part2/contracts/ItemManager.sol",
  "compiler": {
    "name": "solc",
    "version": "0.8.7+commit.e28d00a7.Emscripten.clang"
  },
  "schemaVersion": "3.4.3",
  "updatedAt": "2021-12-11T23:59:36.537Z",
  "networkType": "ethereum",
  "devdoc": {
    "kind": "dev",
    "methods": {},
    "version": 1
  },
  "userdoc": {
    "kind": "user",
    "methods": {},
    "version": 1
  }
}